:10000000E833002031740000B17D000091690000E8
:1000100000000000000000000000000000000000E0
:10002000000000000000000000000000B17D0000A2
:100030000000000000000000B17D00002D690000FC
:10004000B17D0000B17D0000B17D0000B17D0000F8
:10005000FF670000B17D0000B17D0000B17D0000B0
:100060002D6800003B680000B17D0000B17D0000FC
:10007000BD680000B17D0000B17D0000B17D0000D1
:10008000B17D0000B17D0000B17D0000B17D0000B8
:1000900000000000B17D0000B17D0000B17D0000D6
:1000A0000000000000000000B17D0000B17D0000F4
:1000B000B17D0000B17D000000000000B17D0000B6
:1000C000E022520080180268914203D34368D2189C
:1000D000914202D380680028F5D170471948016821
:1000E00000290ED180214902816009094160002167
:1000F000C943C160016104214161134A1160134980
:1001000001600120704730B4030007240800083064
:10011000204201D1002404E0082508000830281AF4
:1001200004400819111B9861D96001220A434260FA
:1001300028224018426003480069D86130BC7047EB
:1001400000000000802B0020102A00206859883C05
:10015000F0B587B00700072408000830204201D11D
:10016000029106E0082508000830281A20400818E7
:10017000029010000830204205D0082110000830FD
:10018000081A0440121914000298C018039005467A
:100190000298201AC01A0190032633430298436044
:1001A000A54201D301F00CF82079C00701D401F079
:1001B00007F80198102801D201F002F8B8698442CA
:1001C00008D1F86801994018F860BD610121014328
:1001D00069606EE17869844209D1B8680199401874
:1001E000B8607D61012101436960285061E1606868
:1001F0000640012E00D0BBE0072188430590C008CF
:1002000020283ED2A1680091E6680490B44201D152
:1002100000F0D6FF0098844201D100F0D1FF606861
:10022000072188430499C900884201D000F0C8FF23
:100230000498C0003918009A08002830824208D07B
:1002400010463A69904200D28AE0C068A04200D0CD
:1002500086E00098864206D138680121049A9140D0
:10026000884338607EE028318E4205D03869864266
:1002700076D3B068A04273D10098C6600098B06091
:1002800070E0A0690090E668A6420CD0A0683969C9
:10029000884225D3C168A14222D1B168A1421FD1B1
:1002A000C660B0601EE0210014310E68002E07D138
:1002B000210010310E68002E14D001E001000E68FC
:1002C000300014300268002AF8D130001030026883
:1002D000002AF3D13869814202D30020086001E08E
:1002E00000F06EFF009800283CD0E06980003818CC
:1002F00098214900401801688C4209D10660002EFF
:1003000014D178680121E26991408843786029E03E
:1003100000983969884207D30069A042009801D14A
:10032000066103E0466101E000F04AFF002E19D0AB
:100330003869864214D30099B1612169002906D039
:10034000814202D331618E6101E000F039FF6069C2
:10035000002807D03969884202D37061866101E0C4
:1003600000F02EFF05982418019805994018019077
:1003700060680121884360600198014369600198C9
:1003800028500198C008202822D20090C0003C18B4
:10039000283426000198102801D200F011FF386897
:1003A00000990200CA40D10705D40121009A91406A
:1003B0000143396007E0A0683969884201D306002B
:1003C00001E000F0FDFEA560F560AE60EC6070E05D
:1003D0000198000A01D1002225E0802149028842CB
:1003E00001D31F221FE0FF21C9434118090C082235
:1003F00011408840314A8218120C04231A40904060
:100400002F4BC3181B0C022423400E24611A891A97
:10041000C91A9840C00B08184100019AC01DC2407B
:10042000D007C00F0A1890003818982149004118C9
:10043000EA610020686128617B681C00D440E40701
:1004400005D401209040184378600D601DE00968D4
:100450001F2A01D1002302E0192352089B1A019A96
:100460009A4000E019004B680724A343019CA34273
:1004700010D0D30F9B00CC18103452002368002BEF
:10048000F0D13869844212D32560A961ED600398E8
:10049000A8600EE08A683B69994208D39A4206D365
:1004A000D560039B8B60AA60E960A86101E000F061
:1004B00087FE0298083007B0F0BD000000F0FFFF93
:1004C00000C0FFFFF2B586B0040091480068002824
:1004D00001D1FFF703FE8E488168069840182F303F
:1004E000491E88430699814200D3D9E1D8214900A9
:1004F00061188968002909D0D8225200A258101822
:10050000824200D3CCE1814200D2C9E100F062FE18
:10051000002800D1C4E10700006800900020C0431B
:10052000874200D1BCE1D8204000205800994018F3
:10053000D8214900605061184968814200D2010009
:10054000D820400020184160A069002838D12069D7
:10055000002801D0874200D22761D820400020180F
:1005600007610098D8214900611848610020D8210E
:1005700049006118C8616648006860620020C04395
:100580002062002021002831C9600A000832116071
:10059000D2609260801C10312028F5D3C24884427A
:1005A00003D1009A283A390028E0201F006807216B
:1005B00088432118083900983818421A283A1DE053
:1005C000E0204000201800E0806800281AD0016870
:1005D000426889188F42F7D1017B090712D4A169BB
:1005E000026891420ED34368D21891420AD2009910
:1005F00059184160E06800994218A1692000FFF78E
:1006000082FD3AE12069874200D22761E020400064
:1006100020180099791800E08068002810D002683E
:100620008A42F9D1017B09070AD407604168009B1F
:10063000C9184160069B39002000FFF789FD30E1B1
:10064000A0690290054629002000FFF739FD0168E6
:1006500040680818059001462F3908000830400707
:1006600001D1002005E0082208000830101A4007D8
:10067000400F091828001030814201D2019500E096
:100680000191019808300490019E183600200390D3
:100690000099283938000830400701D1002205E0D0
:1006A000082238000830101A4207520FB818891A69
:1006B000A061E16001220A434260282240184260A2
:1006C00013480069E0610498400701D000F078FD0C
:1006D0001B20019948600498E0214900611810220C
:1006E00000F0A2FDD8204000201807610098D82112
:1006F0004900611848610020D82149006118C8618B
:100700000498D821490061188861059803E000BF6A
:10071000802B00200E00311D07227260039A521CAC
:1007200003920A1D8242F5D30398022801DA00F0F1
:1007300047FD0198A84200D19FE0401B29184A6854
:1007400001239A434A60012202436A600860C1089B
:10075000202921D20091C9006618283637001028B8
:1007600001D200F02DFD206800990200CA40D10797
:1007700005D40121009A91400143216007E0B0684F
:100780002169884201D3070001E000F019FDB5603E
:10079000FD60AF60EE6070E0010A01D1002226E04A
:1007A0001A04914201D31F2221E0FF22D2438A186A
:1007B000120C08231A40009291403C4A8A18120CED
:1007C00004231A4091403A4BCB181B0C02263340AD
:1007D0000E26009FF61BB21AD21A9940C90B511867
:1007E0004A00C91D0300CB40D907C90F5218910018
:1007F000611898235B00C918EA6100236B612B61C3
:1008000063681E00D640F60705D4012090401843C7
:1008100060600D601CE009681F2A01D1002302E01E
:10082000192352089B1A02009A4000E019004B68F5
:100830000726B343834210D0D30F9B00CE18103647
:1008400052003368002BF1D12069864213D3356002
:10085000A961ED600298A8600FE088682269914262
:1008600009D3904207D3C560029A8A60A860E96004
:100870000020A86101E000F0A3FCE0680699814235
:100880000ED2411AE160A069069A8218A261012382
:100890000B435360069903220A434260083000E08C
:1008A000002007B0F0BD00005428002000F0FFFF3A
:1008B00000C0FFFFF2B584B007000020009004984C
:1008C0004442000A25D080214902884201D31F20DA
:1008D0001FE0FF21C9434118090C0822114088403C
:1008E000B64A8218120C04231A4090400E4BC318CB
:1008F0001B0C02252B400E25691A891AC91A98402B
:10090000C00B08184100049AC01DC240D007C00F98
:10091000081881007918982252008A58002A29D094
:100920001F2803D1002304E000C0FFFF1921430862
:10093000CB1A04999940002300E049005568072626
:10094000B543049EAD1BA54202D200922C000CD0F0
:100950005569CE0FB60092191269002D02D095424A
:1009600000D02B00002AE8D11A00002A3FD10099BC
:1009700000293ED10121012282405000434203431D
:100980007A681A4000D17FE150421040401E020BAD
:1009900010231A40D040430908252B400293D84029
:1009A000830804252B40D840450802263540019590
:1009B000E84045082940029D5219D218019BD218DF
:1009C0005218C84010188000381898214900425821
:1009D0000DE002005068072188430499401AA042A4
:1009E00001D20400009210690028F2D15269002A55
:1009F000F0D10098002800D146E1B8680499401A67
:100A0000844200D340E1009E3869864200D239E139
:100A100070180390054604982018029000984068CA
:100A2000072188430299884201D000F0C9FBAE42F9
:100A300000D327E10098806901900098C66886423B
:100A40000ED0009880683969884226D3C168009A20
:100A5000914222D1B16891421FD1C660B0601EE0C0
:100A6000009914310E68002E07D1009910310E68DC
:100A7000002E14D001E001000E683000143002682E
:100A8000002AF8D1300010300268002AF3D138690A
:100A9000814202D30020086001E000F091FB019840
:100AA000002843D00098C069800038189821490078
:100AB00040180099026891420AD10660002E16D1B2
:100AC00078680121009AD2699140884378602DE0CE
:100AD00001983969884208D30069009988420198D1
:100AE00001D1066103E0466101E000F069FB002EE0
:100AF0001CD03869864217D30198B061009800690C
:100B0000002807D03969884202D33061866101E04C
:100B100000F056FB00984069002807D039698842E8
:100B200002D37061866101E000F04AFB03200121DD
:100B3000102C0AD2029A1043009A50600098029A30
:100B4000801842681143416099E0049A1043009A6A
:100B500050600120204368602C51E008202819D201
:100B6000C200BC18283426003A681300C3400B406A
:100B700003D181401143396007E0A0683969884298
:100B800001D3060001E000F01BFBA560F560AE603C
:100B9000EC6074E0200A01D100222BE00A049042AC
:100BA00001D31F2226E0FF22D2438218120C082311
:100BB0001A4001929040014A02E000BF00F0FFFF9E
:100BC0008218120C04231A409040314BC3181B0C9E
:100BD0000226334002930E23019E9B1B9A1A029B0E
:100BE000D21A9840C00B10184200C01D2300C34009
:100BF0000B40D2189000381898235B00C018EA61A7
:100C000000236B612B617B681E00D6400E4004D12F
:100C100091401943796005601CE000681F2A01D1EA
:100C2000002202E0192152088A1A2100914000E0B6
:100C30001000426807239A43A24210D0CA0F9200C4
:100C40008318103349001A68002AF1D139698B42A0
:100C500013D31D60A861ED600398A8600FE0816860
:100C60003A69904209D3914207D3CD60039A8260DA
:100C7000A960E8600020A86101E000F0A1FA0098F6
:100C8000083002E000F09CFA002005B0F0BD000042
:100C900000C0FFFFF2B586B004006168484208401A
:100CA000401E010B10221140C840420908231A407F
:100CB000D040830804252B40D84045080226354003
:100CC000E8408607F60F8918C91849198919F040B4
:100CD00008188000201898214900405805004168F4
:100CE00007229143069A8F1A09E0080041680722FB
:100CF0009143069A891AB94201D20F000500016991
:100D00000029F2D140690028F0D12069854200D243
:100D1000D2E0A81803900698381801906868072157
:100D200088430199884201D000F04AFA039885422D
:100D300000D3C1E0A8690090EE68AE420CD0A8686C
:100D40002169884225D3C168A94222D1B168A9424C
:100D50001FD1C660B0601EE0290014310E68002E5D
:100D600007D1290010310E68002E14D001E00100D7
:100D70000E68300014300268002AF8D130001030BC
:100D80000268002AF3D12069814202D30020086062
:100D900001E000F015FA009800283DD0E8698000D5
:100DA000201898214900401801688D4209D1066039
:100DB000002E14D160680121EA6991408843606087
:100DC0002AE000982169884207D30069A842009868
:100DD00001D1066103E0466101E000F0F1F9002E67
:100DE0001AD02069864215D30098B061286900287E
:100DF00007D02169884202D33061866101E000F0AA
:100E0000DFF96869002807D02169884202D3706140
:100E1000866101E000F0D4F90320102F09D2019976
:100E20000843686001982818416801220A4342601B
:100E30003FE0069908436860012038430399486001
:100E40000398C751A0680090C608202E01D300F077
:100E5000B7F90098002829D0606902900196F00047
:100E60002618283604960098102801D200F0A8F918
:100E7000206801990200CA40D10705D40121019AD6
:100E800091400143216007E0B0682169884201D3A5
:100E9000049001E000F094F90298B060029804997F
:100EA000C8600498029988600298C660A760039899
:100EB00060610835280002E000F082F9002007B0E8
:100EC000F0BDF0B587B00400C046C046BB4DF52C60
:100ED00000D328E10B2C01D2102402E00B340720B0
:100EE0008443E008019028680199C84003273842EC
:100EF00050D001260122824388180190C0002C188E
:100F00002834A06800900198C000039000984068C1
:100F1000072188430399884201D000F051F90098D5
:100F2000806802900098A04201D100F049F9009831
:100F30000299884201D100F043F9009840680721E6
:100F400088430399884201D000F03AF9029884421C
:100F500006D12968019A01209040814329600DE063
:100F60002969884208D3C0680099884204D1029850
:100F7000A0600298C46001E000F022F903980743E2
:100F80000098476000980399401841680E434660F6
:100F9000009E06E1A968A14200D3D7E0002800D155
:100FA000B7E00126019901228A405100019A904040
:100FB0004A420A43024051421140491E080B102286
:100FC0001040C1404A0908231A400092D1408A08C3
:100FD00004231A400192D1404A0802231A40029287
:100FE000D1404A083240009BC018019BC018029BA8
:100FF000C0188018D14040180390C000281828302D
:101000000090806804900398C000029004984068A3
:10101000072188430299884201D000F0D1F8049852
:101020008068019004980099884201D100F0C8F8C6
:1010300004980199884201D100F0C2F804984068F0
:10104000072188430299884201D000F0B9F800983E
:101050000199884206D12968039A01209040814372
:10106000296010E00846296988420AD3C0680499BB
:10107000884206D101980099886000980199C8605B
:1010800001E000F09DF80298001B039027430498AC
:10109000476004980019059003983043059948600B
:1010A000039805990850A8680190C408202C01D322
:1010B00000F086F80198002825D068690290009415
:1010C000E0002C18283427000198102801D200F0E5
:1010D00077F8286800990200CA40324003D18E4058
:1010E00006432E6007E0A0682969884201D3070003
:1010F00001E000F065F80298A0600298F86002989C
:1011000087600298C4600398A86005986861049E8F
:1011100047E06868002836D021002800FFF7BAFDB4
:10112000060013D044E03F20C043844202D3002491
:10113000E4430BE00B34072084436868002805D0A3
:1011400021002800FFF7B6FB060031D1A968A142B3
:1011500019D30A1B686901260327102A08D301192D
:101160006961AA6016434E608A502743476008E0D1
:101170000022AA606A610F43476041184A6816431B
:101180004E6006000DE0E86884420CD2001BE86067
:10119000AE693119A961012202434A60032020434C
:1011A0007060083604E021002800FFF78BF9060084
:1011B000C046C046300007B0F0BD000054280020F3
:1011C00080B5012000F04AF801BD0268531C03609D
:1011D0001170704707490868002801D00020704747
:1011E000054807229043086004499143091A0160A9
:1011F000704700BFDC2B0020EF330020E83B0020CD
:10120000124207D08B0706D00B78491C0370401C94
:10121000521EF7D87047830706D00B78491C03701D
:10122000401C521EF9D1704770B4103A03D378C9EC
:10123000103A78C0FBD2530701D318C918C001D5A2
:1012400008C908C0D20704D30B880380891C801CFE
:10125000002A01D50B78037070BC704780B5C0467A
:10126000C046024A11001820ABBEFBE72600020070
:1012700038B5040000258020215A200000F042FDEE
:10128000002805D100F0DBFD0C4800F025FE12E03F
:10129000A0880002A18889B2090A89B2401880B2E8
:1012A00000F045FD002805D100F0C9FD044800F01C
:1012B00013FE00E001252800C0B232BDD079000045
:1012C000EC79000030B58BB00C0080B2FF21891C96
:1012D000401A4AD080214900401A68D0401E7CD074
:1012E000401E00D188E0401E00D19FE0401E00D18A
:1012F000ACE0FC3800D1BAE0401E00D1CDE0FF38B0
:1013000000D1D4E0401E00D1DDE080218900401AE8
:1013100000D1E4E0FF3800D1EDE0401E00D101E152
:10132000401E00D10EE1FE3800D11AE1401E00D16E
:1013300023E1401E00D12EE1401E00D13CE1801E81
:1013400000D14AE1401E00D153E1401E00D161E1CD
:10135000F93800D16EE1401E00D1D7E1401E00D126
:1013600083E1401E00D1E7E1F0E100F0D0FD282349
:10137000D04A2121FF20801C00F07BFCCD48006872
:10138000012803D0CB48006802280AD10120CA49AD
:1013900088710020C9490860012000F00DFE00F0AE
:1013A00061FFC4480168D84800F096FDCEE10120F5
:1013B000C149087000F0CEFF01F03DF801F0ACF932
:1013C000532001F0E7F9002300222121D64800F044
:1013D00050FCD64800F080FDB8E100230022212116
:1013E000D34800F046FC00F033FF012000F0F0FD90
:1013F000D04800F071FDA9E1002300222121D4484A
:1014000000F037FCD34800F067FD01F0FEF9C8207A
:1014100001F024FA01F0F1F900F09CFF01F00BF863
:10142000032001F035FA01F07DFA8FE10120A24995
:10143000887000F087FF0023002221218120800096
:1014400000F017FCC44800F047FD7FE100209A49F6
:101450008870002300222121C04800F00AFC00F01F
:1014600079FF00F0F5FEBE4800F036FD6EE1002386
:1014700000222121BB4800F0FCFB2022210003AC0C
:101480002000FFF7BDFE03A801F0C4FA01208A493D
:10149000C870B54800F020FD58E12023B34A21214F
:1014A000B04800F0E6FBB24800F016FD4EE101F056
:1014B000A8F9002300222121AE4800F0DAFBAE4853
:1014C00000F00AFD42E101F0A0F9002300222121F1
:1014D000A84800F0CEFBA94800F0FEFC36E101234D
:1014E000A74A2121A74800F0C4FB73484179A648C8
:1014F00000F0F2FC2AE1002300222121A34800F0A1
:10150000B8FB0422210001AC2000FFF779FE01980E
:1015100001F0F3F8002000F04FFD01999C4800F025
:10152000DBFC13E101F049F969460872012302AAC4
:101530002121984800F09DFB01F00BF9964800F03E
:10154000CBFC03E1002300222121944800F091FB11
:1015500001F0E2F8002000F03BFD914800F0BCFCF7
:10156000F4E00023002221218E4800F082FB01F0EC
:1015700029FB8D4800F0B0FCE8E000230022212187
:10158000884800F076FB7948007801F08AFB8748AC
:1015900000F0A2FCDAE001F094FB6946C870012378
:1015A00000AAD21C2121824800F063FB6846C17862
:1015B000804800F091FCC9E001F087FB6946887023
:1015C000012300AA921C2121794800F052FB6846B1
:1015D0008178794800F080FCB8E00123774A212126
:1015E000734800F046FB75480178754800F074FCBC
:1015F000ACE001F0D9FB69464870012300AA521CF7
:1016000021216B4800F035FB684641786D4800F0B9
:1016100063FC9BE001F0E9FB6946087001236A4620
:101620002121634800F025FB68460178664800F0F8
:1016300053FC8BE000202049886000201E49C871BF
:1016400000201D4908740023002221215F4800F07A
:1016500010FB042221005E4C2000FFF7D1FD16484C
:10166000C1685C4800F038FC70E0002525002800C7
:1016700001F025FE002300222121574800F0F9FA4D
:10168000287841281CD1554841210B4A517469786A
:10169000094A926805235A43815404222D1D2900CA
:1016A000054B9B6805246343C418641C2000FFF7A6
:1016B000A7FD1EE0382B0020982B0020D82B0020FF
:1016C0002878422815D145484221454A5174697805
:1016D000434A926809235A43815408222D1D290048
:1016E0003F4B9B6809246343C418641C2000FFF728
:1016F00087FD3B488068401C3949886038488168CC
:10170000384800F0E9FB21E0246E00000120344954
:10171000C871002300222121334800F0AAFA33487F
:1017200000F0DAFB12E000BF01020000F46F0000DD
:10173000020200007C77000001232D4A21212A4863
:1017400000F097FA2B4800F0C7FBFFE70BB030BD65
:1017500003020000A07700004C72000005020000A8
:10176000787200000103000084740000602B0020E8
:10177000AC74000001040000A4720000D0720000EC
:101780009D2B002002060000A46C00000107000051
:10179000E46C000002070000C477000003070000AB
:1017A000FC72000001080000D4740000FC7400000A
:1017B000030800008C6B00001C6C0000E22B002072
:1017C000246D0000646D0000606C000001090000E1
:1017D000A42B00202870000003090000D013002073
:1017E000982B0020087A00000209000024750000F0
:1017F000A82B002050790000F4B5A8B00D0080B2ED
:10180000C149401A11D0401E49D0401E00D183E08A
:10181000401E00D1BDE0401E00D100E1401E00D1BD
:101820007EE1FB3800D151E1D4E100260C222900F1
:101830000BAC2000FFF7E4FC0BA8007801F0EEFAF7
:101840000600B24886421DD033000BA807C801F03D
:1018500041FB0400E4B2002C0AD100230022212124
:10186000A94800F006FA3100A94800F035FB12E063
:10187000002300222221A44800F0FBF9A54800F033
:101880002BFB08E00023002222219F4800F0F1F901
:10189000A14800F021FBA14800F01EFB9AE10026C0
:1018A00000270C22290005AC2000FFF7A9FC05A8A1
:1018B00001F005FD002105A801F0AEFC06009348EB
:1018C000864212D0330005A807C801F0B9FB040016
:1018D000E4B2002C05D101273100BF4800F0FCFA2A
:1018E00006E0BE4800F0F8FA02E0BD4800F0F4FA65
:1018F000FFB2002F06D0002300222121B94800F0BA
:10190000B8F905E0002300222221B64800F0B1F921
:10191000B54800F0E1FA5DE1002600270C2229001D
:1019200002AC2000FFF76CFC02A801F0C8FC00210B
:1019300002A801F071FC06007448864212D0330000
:1019400002A807C801F0BBFB0400E4B2002C05D1DB
:1019500001273100A54800F0BFFA06E0A44800F0D6
:10196000BBFA02E09E4800F0B7FAFFB2002F06D0A3
:101970000023002221219F4800F07BF905E000238D
:10198000002222219B4800F074F99B4800F0A4FA41
:1019900020E100276878052803DA68466978017035
:1019A00002E00420694608702D78002400260CE02F
:1019B00000220EA8FFB2C1192800C0B201F000FD3C
:1019C000204304001037761C6D1C68460078F6B280
:1019D0008642EDD3E4B2002C14D1FFB23B009BB29F
:1019E0000EAA2121854800F044F9854800F074FAD8
:1019F000FFB2390089B20EA801F086FE814800F0DE
:101A00006BFA08E00023002222217C4800F031F923
:101A10007D4800F061FA7D4800F05EFADAE00027C8
:101A20002800801C01906878042803DA68466978E9
:101A3000017002E00320694608702E780024744883
:101A400000F04AFA28A80088811E89B2AD1C28003F
:101A500001F05AFE6E4800F03FFA00250EE00198B2
:101A6000FFB2C1193000C0B201F01DFD20430400D7
:101A700010370A2000F0F2FE6D1C761C68460078D4
:101A8000EDB28542EBD3E4B2002C12D10023002248
:101A90002121604800F0EDF85F4800F01DFAFFB228
:101AA000390089B2019801F02FFE564800F014FA6F
:101AB00008E0002300222221564800F0DAF85748B7
:101AC00000F00AFA564800F007FA83E000F059FBEC
:101AD0000400E4B2002C09D1002300222121514846
:101AE00000F0C7F8504800F0F7F908E000230022A2
:101AF00022214C4800F0BDF84C4800F0EDF94C486C
:101B000000F0EAF966E000BF01200000FFFF0000DE
:101B10005C710000287300005C7000004C750000D0
:101B2000032600242878694608700A21002208ACA0
:101B3000200001F00DFE642100220EAC200001F017
:101B400007FE68460078412801D1042700E00827F5
:101B50006846007801F0EFFB0400E4B2002C32D1BB
:101B6000761E1E2000F07AFE08A96846007801F073
:101B7000EBFB0400E4B2002C06D10EAAFFB2390040
:101B800089B208A801F0D2FBF6B2002E02D0E4B26E
:101B9000002CE5D1E4B2002C0ED10EAA29782548FC
:101BA00000F09AF9FFB202237B439BB20EAA2121D7
:101BB000214800F05EF80CE00023002222211E489C
:101BC00000F057F805E00023002222211A4800F017
:101BD00050F8FFE729B0F0BD8C710000547300008D
:101BE000247A000002200000747500008073000059
:101BF0009C75000003200000C47500000420000054
:101C0000E87700000C780000407A0000EC750000D6
:101C1000907000000520000030780000547800002B
:101C2000147600000121000078780000707900002F
:101C30003C760000907900000620000010B50022DC
:101C40000AE0140402D51400834A624052005B1E6D
:101C5000002BF6D1491E401C002905D01300027844
:101C600012025A400823F3E7100080B2000AC0B203
:101C700010BDF0B5A1B004000D0016001F006846AD
:101C8000802101F08DFDA4B220003C000A34AA217D
:101C90006A46117055216A465170210089B2090ABD
:101CA0006A46917021006A46D170010089B2090A22
:101CB0006A4611716946487168468571380080B27C
:101CC000000A6946C871380069460872BFB2002F21
:101CD00007D0BFB23A0031006D4609352800FFF742
:101CE0008FFAA4B2611E6846FFF7A8FF6946A4B246
:101CF0000919491E0870210089B2684601F066FC86
:101D000021B0F0BD70B504000E0000250020B6B271
:101D1000711E2000FFF792FFB6B2A119491E097883
:101D2000C0B2884200D101252800C0B270BD00B504
:101D300080B2FF21891C88427CD080B2474988420A
:101D400078D080B24649884274D080B245498842F2
:101D500070D080B28121890088426BD080B2424924
:101D6000884267D080B24149884263D080B24049FE
:101D700088425FD080B23F4988425BD080B23E4902
:101D8000884257D080B23D49884253D080B23C4906
:101D900088424FD080B23B4988424BD080B23A490A
:101DA000884247D080B23949884243D080B238490E
:101DB00088423FD080B2374988423BD080B2364912
:101DC000884237D080B23549884233D080B2344916
:101DD00088422FD080B2334988422BD080B232491A
:101DE000884227D080B23149884223D080B230491E
:101DF00088421FD080B22F4988421BD080B22E4922
:101E0000884217D080B22D49884213D080B22C4925
:101E100088420FD080B22B4988420BD080B22A4929
:101E2000884207D080B22949884203D080B228492D
:101E3000884201D1012000E00020C0B200BD10B5F1
:101E400084B0684623491CC91CC00C390C380921D0
:101E5000684601F0BBFB1FBD80830000010200004B
:101E6000020200000302000005020000010300005E
:101E70000203000001040000020400000109000048
:101E8000020900000309000004090000012000000D
:101E900002200000032000000420000005200000B4
:101EA00001210000020600000107000002070000F7
:101EB00003070000010800000208000003080000FA
:101EC00004080000062000000608000007080000C3
:101ED00008080000EC7C00000EB400B582B003A935
:101EE00000916B4602000121034878440A3001F05A
:101EF00059FC029906B008470D5D000080B501F05D
:101F0000F6FE00220121052001F0F4FF01BD80B59D
:101F100001F0E9FE01BD30B585B004000D00684652
:101F200014491422FFF780F96846EDB20A214D43A7
:101F300041191148FFF7D0FF21681048FFF7CCFF87
:101F400061680F48FFF7C8FF0E48FFF7C5FF00257F
:101F500006E0ADB26019017A0BA0FFF7BDFF6D1C62
:101F6000ADB260688542F4D30848FFF7B5FF05B00D
:101F700030BD0000407C0000146F00002C7C00008D
:101F8000E47A0000787C0000257820004C6F000087
:101F900080B50122802189011D4801F0E9FF01225D
:101FA000802189001B4801F0E3FF01201A490860E5
:101FB00001201A49086001BD00B5C0B2002803D154
:101FC00000201549086002E000201449086000BDA7
:101FD00000B5C0B2002803D101200F49086002E01B
:101FE00001200E49086000BD00B5C0B2002807D12D
:101FF0000B4800688021890141400948016006E0E2
:10200000084800688021890041400648016000BD01
:1020100000400050404000503442005064420050A4
:10202000084000504840005010B5002400F0FAFB72
:1020300002F010F802F040F801F0B1FA02F046F8B0
:1020400000F0C6FE00F0FFFD00F05CFEFFF7A0FF11
:1020500001F03EFE00F090F902F03AF900F0B2FB18
:1020600000F060F901F090FA02F03BF800F0BEF9E0
:10207000C82000F0F3FB02F038F800F0DCF9C820CB
:10208000800000F0EBFB00F05DF900F0B2FBFA20FD
:10209000800000F0E3FB02F0E9F9502000F018FCAA
:1020A0002000C0B210BD30B583B0002400200090E5
:1020B00000F016FB250002F09BFC04002C43C82016
:1020C00000F0CCFB250002F008F904002C432500A9
:1020D00000F052FC04002C43250000F091FE0400A7
:1020E0002C43250001F079FE04002C43E4B2002CBF
:1020F00003D14E48007800F0D4FD042201A9082045
:1021000002F0EBFC0400E4B2002C10D10198002195
:10211000C943884203D101204549487102E00020AB
:102120004349487101994348FFF7D6FE02E042480F
:10213000FFF7D2FE41480068800714D502203F49CE
:10214000086004226946002002F0C7FC0098401C89
:10215000009004226946002002F050FC00993848A3
:10216000FFF7BAFE06E00020009004226946002036
:1021700002F044FC2000C0B23EBD80B502F0ADF8D4
:1021800002BD30B589B00024002001902D48009098
:102190003E21002002F008FD0400E4B2002C41D1F1
:1021A0001C21002202AD280001F0D2FA3C2004904C
:1021B00002A9022001F0B7FE01201C49487001204D
:1021C0001A49087003201949887000201749C870FF
:1021D0001D48164948601C481449886000F08FFC6F
:1021E0001249888100F08EFC1049C8810821002224
:1021F000164D280001F0ACFA042201A9002002F0DB
:10220000FDFB2043040004226946082002F0F6FB8F
:1022100020430400202205498020800002F0EEFBCC
:10222000204304002000C0B209B030BD602B002064
:10223000982B0020FC7A0000147B0000084000402E
:102240002C710000F8F8F8F888130000782B0020B3
:1022500080B501F04AFF00F0EEF8532000F09AFA42
:10226000002002BD80B5572000F094FA00F0E8F994
:1022700001F037FF00220421032001F03BFE002083
:1022800002BD10B5040001F02CFF2000C0B200F028
:1022900071F92200D2B20321012001F02BFE0022AD
:1022A0000321032001F026FE002010BD0121C006FD
:1022B000C00E81402A4801607047016801220A432C
:1022C0000260704701680122914301607047C16854
:1022D00001220A43C260704780B5142210212148B0
:1022E00002F086FC1F48FFF7F2FF0820FFF7DEFF31
:1022F00000201D49086001BD80B51A48FFF7DDFFC9
:1023000001BD1A490860704780B517480068401C35
:102310001549086015480068002802D01348006875
:10232000804701BD80B514221021114802F060FCE5
:102330000F48FFF7CCFF0920FFF7B8FF00200D4939
:10234000086001BD80B500200A4908600848FFF711
:10235000B4FF01BD80B50648FFF7B4FF01BD000022
:1023600000E100E000000140CC2B0020C82B002041
:1023700000010140D02B002080B501226B496C4840
:1023800001F0F6FD01226B496B4801F0F1FD0122DD
:10239000C0216A4801F0ECFD0122C021684801F02B
:1023A000E7FD0020674908600020674908600020B9
:1023B0006649086000206649086000206549086099
:1023C00000206549086000206449086000206449D5
:1023D000086000206349086000206349086000200D
:1023E0006249086000206249086001BD012055492A
:1023F0000860012054490860012054490860012008
:10240000534908600120534908600120524908607F
:1024100001205249086001205149086001205149BA
:1024200008600120504908600120504908600120DF
:102430004F49086070470020424908600020424927
:1024400008600020414908600020414908600020E0
:102450004049086000204049086000203F4908606A
:1024600000203F49086000203E49086000203E49A6
:10247000086000203D49086000203D490860704721
:1024800000B5C0B2302803D101202E49086000BD3C
:10249000C0B2312803D101202B490860F7E7C0B250
:1024A000322803D1012029490860F0E7C0B233285F
:1024B00003D1012026490860E9E7C0B2342803D1DE
:1024C000012024490860E2E7C0B2352803D1012089
:1024D00021490860DBE7C0B2362803D101201F493B
:1024E0000860D4E7C0B2372803D101201C49086036
:1024F000CDE7C0B2382803D101201A490860C6E7E9
:10250000C0B2392803D1012017490860BFE7C0B223
:102510002A2803D1012015490860B8E7C0B2232852
:1025200003D1012012490860B1E7B0E701030000C0
:10253000004000500E2400004040005080400050F9
:10254000C0400050204200500042005068420050FD
:10255000DC4200507442005044420050D8420050C7
:102560009C420050244200504C420050984200507F
:102570004842005000B5C0B2302803D1002048497D
:10258000086000BDC0B2312803D100204549086071
:10259000F7E7C0B2322803D1002043490860F0E7D2
:1025A000C0B2332803D1002040490860E9E7C0B237
:1025B000342803D100203E490860E2E7C0B2352844
:1025C00003D100203B490860DBE7C0B2362803D1C5
:1025D000002039490860D4E7C0B2372803D1002071
:1025E00036490860CDE7C0B2382803D1002034490D
:1025F0000860C6E7C0B2392803D10020314908601D
:10260000BFE7C0B22A2803D100202F490860B8E7ED
:10261000C0B2232803D100202C490860B1E7B0E7FD
:1026200038B504000025FFF706FF04E0EDB2605D59
:10263000FFF726FF6D1CEDB2605D0028F6D131BDBD
:1026400080B52348FFF7ECFF01BD80B52148FFF7B7
:10265000E7FFC820400000F001F91F48FFF7E0FF46
:10266000C820400000F0FAF800F0A7F8532802D183
:10267000FFF7E1FE01E0FFF7B9FE01BD80B51748A5
:10268000FFF7CEFFC820400000F0E8F800F095F812
:10269000532802D1FFF7CFFE01E0FFF7A7FE01BDEF
:1026A000204200500042005068420050DC4200507E
:1026B0007442005044420050D84200509C420050A6
:1026C000244200504C420050984200504842005072
:1026D000987C0000807D0000887D0000907D0000D7
:1026E000002028490870002026494860002025491C
:1026F000886025482349C860704710B50400012050
:102700002049087001F0B5FC1E49486000201D49B1
:1027100088601C48C46010BD00201A490870002061
:102720001849486000201749886017481549C86053
:10273000704710B51348446801F09BFC1149896843
:10274000021B32235A4389180E4A91600D49486092
:1027500010BD80B501F08DFC0A4948600020094990
:10276000886001BD07480078704700B5054880685B
:102770000449C968884201D2012000E00020C0B2AB
:1027800000BD0000AC2B002050C3000080B500F05D
:10279000C9F801BD00B5C0B2532802D0572804D0F3
:1027A00007E053200649087006E0572004490870E6
:1027B00002E053200249087000BD014800787047CC
:1027C000E12B002080B501228021124801F0D0FBCE
:1027D00001222021104801F0CBFB002220210D48CE
:1027E00001F0C6FB00200D49086000200C4908607C
:1027F00001BD0120094908607047002007490860B1
:1028000070470120064908607047002004490860AD
:102810007047000040400050004100505C420050B2
:102820001443005080B502F045FA0A4902F0F7FB64
:102830000949087001BD00000138FDD1704770479B
:1028400080B580B20449097841430800FFF7F4FFDE
:1028500001BD000000093D00E02B002010B5040080
:1028600003E0FA208000FFF7EBFF2000441E002861
:10287000F7D110BD10B5040005E0FA208000FFF785
:10288000DFFF00F03DF82000441E0028F5D110BD08
:1028900010B5040003E0FA208000FFF7EBFF2000F2
:1028A000441E0028F7D110BD00B508E059201B498F
:1028B00008601620194908608820184908601748E0
:1028C00000680128F2D100BD00201449086070475B
:1028D00010B50400FFF7E8FFE020000602F0D9FA87
:1028E00000220021E020000602F084FA00230122E9
:1028F0000021E4B2200002F0E9FBFFF7E5FF10BD84
:1029000080B572B6FFF7D0FF05480068012101438A
:1029100003480160FFF7D8FF62B601BD0001005017
:102920000040004000B5FEE730B593B0040032210E
:10293000002205AD280000F00BFF2079082801DBFC
:1029400000202071E0790490A079039060790290D2
:10295000884821790522514340180190E078009081
:10296000A3782288844905A802F0BCFB05A983A0AE
:10297000FFF7B2FA13B030BD10B520210022804C11
:10298000200000F0E5FE20227D498020800002F03A
:10299000A4F87B494978FF2902D10121784A517076
:1029A00077498978FF2902D10321754A91707449CA
:1029B0000978FF2902D10121714A11707049C97843
:1029C000FF2902D100216E4AD1706D494968002269
:1029D000D243914202D16B49694A51606849896882
:1029E0000022D243914202D16649654A916064490E
:1029F0008989654A914203D1FF21091D604A91816D
:102A00005F49C989604A914202D160495C4AD181DB
:102A1000C0B210BD30B589B00400082100226D4657
:102A2000280000F095FE2078002805D02078544931
:102A300008705348007800E000206078002805D036
:102A400060784F4948704E48407800E00020606947
:102A5000002805D060694A4948614948406900E05A
:102A60000020606800280AD060684949884203D283
:102A700060684349486002E0424841494860A068B4
:102A800000280AD0A0684249884203D2A0683C4985
:102A9000886002E03B483A498860A078002814D05A
:102AA0001C21002202AD280000F052FEA07834491B
:102AB0008870A078FA2189004843322102F0ACFAEC
:102AC000049002A9022001F02EFA08226946200093
:102AD000183002F023FB002806D008221834210009
:102AE0002C4C2000FEF78CFB002009B030BD80B5D7
:102AF000202223498020800001F080FF02BDFF20BA
:102B0000001D70472148704780B52348FFF7E4F95E
:102B10001B4801782148FFF7DFF919484178204820
:102B2000FFF7DAF9164881781E48FFF7D5F91448FF
:102B300041681D48FFF7D0F9114881681B48FFF72D
:102B4000CBF90F4881891A48FFF7C6F90C48C189AB
:102B50001848FFF7C1F90A4841691748FFF7BCF95F
:102B60001648FFF7B9F90B48FFF7DEFE1448FFF7E8
:102B7000B3F901BD087900005C7A000025730000FC
:102B8000602B002088130000FFFF000005030000F9
:102B900089130000782B0020846F00002C7B00003C
:102BA000447B00005C7B0000747B00008C7B000099
:102BB000A47B0000BC7B0000D47B0000547C0000A0
:102BC000BC6F000080B50A48407801280AD1084847
:102BD000007800F056F8064802780121022001F042
:102BE00089F903E00248007800F04BF8002002BDAC
:102BF000602B002080B501228021C901354801F0F9
:102C0000B7F901228021C901334801F0B1F9002050
:102C10003249086000203249086001BD80B50122B8
:102C2000802149012F4801F0A3F900202E490860B6
:102C300001BD01202C490860704700202A49086026
:102C400070477047704780B5FFF7D4FFFFF7E6FF86
:102C500000220121254801F08BF900228021090280
:102C60001D4801F085F922480068012101432048F0
:102C70000160204800688021090201431D4801606D
:102C800001BD80B5C0B2012802D1FFF7D2FF04E038
:102C9000C0B2022801D1FFF7D4FF01201649087104
:102CA00001BD80B5C0B2012802D1FFF7C6FF04E024
:102CB000C0B2022801D1FFF7C5FF02200E490871FA
:102CC00001BD0E480068C0B270470D480068C0B230
:102CD0007047000080400050C0400050B842005093
:102CE000F842005000400050304200504040005038
:102CF00064400050E4400050982B002040420050B7
:102D0000FC42005080B5402300220021204802F000
:102D100019FA20480068204901401E4801601D48FA
:102D20000068012101431B48016001BD30B500204E
:102D300000211A4A002300E05B1CDBB2042B20DADE
:102D4000144C246880252D012543124C2560144C19
:102D50002468E407FBD5124C24680725AC43012501
:102D600025430F4C256000240E4C24682405240DB7
:102D70000019A14201D22100FFE79442DCD22200D7
:102D8000DAE7401A801A400880B230BD0000000027
:102D900000000E4030000E40FFFFFCFFFFFF000070
:102DA00040000E4018000E4010B50024FFF7BEFF93
:102DB00080B203214143FA2080004143090BC8201F
:102DC0004000814200D301242000C0B210BD0000A9
:102DD00080B500221021074801F0CAF806480068B3
:102DE000102101430448016001BD04480068C0B2DD
:102DF0007047000040400050644000505042005076
:102E000010B58A49FF228A4C200000F0A1FC874AB5
:102E100087498020C00001F060FE10BDF8B5002693
:102E200000240025C0B2412803D1814C8148456867
:102E300002E0814C7F488568002600E0761CAE42A7
:102E40000ED2F708012000903000082102F0E7F8C8
:102E500000988840FFB2E15D0142EFD0300000E011
:102E60007648F2BD70B5020008000024D2B2412AB3
:102E700001D16F4C00E0704CC5080126082102F01A
:102E8000CEF88E40EDB2605DB043EDB26055674A5A
:102E900067498020C00001F0B1FD70BD70B502002F
:102EA00008000024D2B2412A01D1614C00E0624CFA
:102EB000C5080126082102F0B2F88E40EDB2605D2F
:102EC0000643EDB26655594A59498020C00001F0C9
:102ED00095FD70BD77B585B01C0000256846007D66
:102EE00041281DD105A8407869460870042205A92B
:102EF000091D6E46761C3000FEF782F905206043FE
:102F0000C021090140180522694601F077FD2843D8
:102F1000050021004120FFF7A5FF2843050020E020
:102F20006846007D42281CD105A840786946087291
:102F3000082205A9091D02AE761C3000FEF760F9D3
:102F400009206043E821C9014018092202A901F0C3
:102F500055FD2843050021004220FFF783FF284349
:102F600005002800C0B208B070BDF8B582B00D00F1
:102F7000110000260024C0B2412828D12C4C052085
:102F80006843C02212018018029A05235A4301F0B7
:102F900035FD304306000EE0EF08012000902800C8
:102FA000082102F03CF800988840FFB2E15D8143BF
:102FB000FFB2E1556D1C02988542EDD31B4A1C49B6
:102FC0008020C00001F01AFD304306002AE0C0B2A4
:102FD000422827D1184C09206843E822D2018018E2
:102FE000029A09235A4301F009FD304306000EE01E
:102FF000EF08012000902800082102F010F8009846
:103000008840FFB2E15D8143FFB2E1556D1C02983B
:103010008542EDD3054A06498020C00001F0EEFC50
:10302000304306003000C0B2FEBD0000E2040000E4
:1030300070230020602B0020E1250020FFFF00000E
:1030400077B585B01D0000246846007D412817D162
:1030500005A8407869460870042205A9091D6E4636
:10306000761C3000FEF7CCF805204543C020000157
:1030700028180522694601F0C1FC204304001AE02B
:103080006846007D422816D105A840786946087236
:10309000082205A9091D02AE761C3000FEF7B0F823
:1030A00009204543E820C0012818092202A901F09F
:1030B000A5FC204304002000C0B208B070BD77B565
:1030C00085B01C0000256846007D412817D10521E8
:1030D00000226E46300000F03BFB05206043C0211B
:1030E000090140180522694601F088FC28430500C3
:1030F00021004120FFF7D2FE284305001AE0684670
:10310000007D422816D10921002202AE300000F0D5
:103110001FFB09206043E821C9014018092202A9C8
:1031200001F06CFC2843050021004220FFF7B6FEA9
:10313000284305002800C0B208B070BDF2B586B0C3
:10314000060011001D0000270878412830D148787A
:103150006A4610700422091D6C46641C2000FEF7AC
:103160004FF8002400E0641C0698844251D20422E7
:103170006946491C052060433018401C01F0CEFF11
:103180000028F0D12700002D10D005206043305CCE
:103190006870412028700420E87004220520444310
:1031A0003119491C2D1D2800FEF72AF8380031E09E
:1031B00048786A4610720822091D02AC641C20007F
:1031C000FEF71EF8002400E0641C0698844220D21A
:1031D000082202A9491C092060433018401C01F054
:1031E0009DFF0028F0D12700002D10D0092060435A
:1031F000305C6870422028700820E870082209209E
:1032000044433119491C2D1D2800FDF7F9FF3800F2
:1032100000E03E4807B0F0BDF3B583B000200020C9
:1032200000240398007841280CD139480190FA20F5
:10323000800000903648009901F0F1FE0290C02510
:103240002D010BE033480190FA20400000903048F7
:10325000009901F0E4FE0290E825ED01002609E066
:103260000098241801982D182B48FEF735FEFFF71B
:1032700047FB761C029886421ED225490022274F22
:10328000380000F065FA019A2449280001F025FC75
:10329000C0B20028E4D1049B039A00991F48FFF7AD
:1032A0004DFF1A49884202D02418200005E00098FA
:1032B000241801982D18DAE7144805B0F0BD10B5B0
:1032C00086B004006846142100F06AFA207841288C
:1032D00006D16A4604212000001D00F027F805E011
:1032E0006A4608212000001D00F020F821780C48D3
:1032F000FEF7F2FD61780B48FEF7EEFD69460A48DD
:10330000FEF7EAFD06B010BD00000000FFFF000060
:1033100088130000941100005C7400004800002035
:10332000C87C0000D47C0000E07C000080B589B23D
:1033300001F053FF01BD10B5040001F0E6FF2000CD
:10334000C0B202F013F810BD7FB506000D000224D4
:1033500001A80C2100F024FAF6B2412E14D16846DF
:10336000002101606946522002F02EF9002823D185
:1033700001A802F054F900281ED1042201A9280056
:10338000FDF73EFF002417E002F074FA040064B277
:10339000002C11D1260002F0BFFA0400344301A82A
:1033A00002F088FA2043040064B2002C04D1082201
:1033B00001A92800FDF724FF200040B204B070BD31
:1033C000F0B58FB005000F00140003A80C2100F029
:1033D000E7F901A865490CC90CC00839083806A9E5
:1033E000262002F0F1F8060076B2002E0DD006A9D4
:1033F000262002F0E9F8060076B2002E05D05C48DF
:10340000FEF76AFD300040B24BE006A802F007F973
:10341000060076B2002E05D05648FEF75DFD30005E
:1034200040B23EE0042206A96E463000FDF7E8FEF9
:10343000002C0AD0042206A903AE3000FDF7E0FEFE
:103440002200042103A801F0C8FE684602F028F912
:10345000060076B2002E05D04748FEF73DFD30004D
:1034600040B21EE06B4601AA2900C9B2602002F0FA
:1034700053F9060076B2002E05D04048FEF72CFD29
:10348000300040B20DE039002800C0B202F078F9F7
:10349000060076B2002E02D03848FEF71DFD30003F
:1034A00040B20FB0F0BD70B58CB004000D0001A8A3
:1034B00033490CC90CC00839083803A9262002F08A
:1034C00083F8060076B2002E0DD003A9262002F064
:1034D0007BF8060076B2002E05D02548FEF7FCFCEE
:1034E000300040B23EE003A802F099F8060076B240
:1034F000002E05D01F48FEF7EFFC300040B231E04F
:10350000042203A96E463000FDF77AFE684602F0F9
:10351000C7F8060076B2002E05D01748FEF7DCFC8F
:10352000300040B21EE06B4601AA2100C9B2602003
:1035300002F0F2F8060076B2002E05D00F48FEF732
:10354000CBFC300040B20DE029002000C0B202F0F8
:1035500042F9060076B2002E02D00A48FEF7BCFC03
:10356000300040B20CB070BD00000000707D000063
:103570009C78000064760000C07800008C76000023
:10358000787D0000E478000080B502F0F7F902BD14
:103590000121C006C00E814064480160704780B5BB
:1035A000E1214902624802F003FA0121604802F079
:1035B000FBF90C20FFF7ECFF01BD00B55D49096880
:1035C0004905FBD4C0B25A49086000BD38B50500B2
:1035D0000C0003E02878FFF7F0FF6D1C2000441E6C
:1035E00080B20028F6D131BD10B586210022524CA0
:1035F000200000F0ADF810BD00B54F494F4A1288C9
:1036000088544E480088401C802101F005FD4B483D
:10361000018000BD80B54948008849490988494A68
:103620001278002A0BD144480078AA2803D101203F
:103630004449087064E000204049088060E0414A45
:103640001278012A17D13D4A1288042A13DB02207E
:103650003C490870384880783949088038480088E3
:10366000000237490880364800883349C978084342
:103670003349088044E0334A1278022A40D180B2AC
:1036800089B288423CD32C48FDF7F2FD002835D0A2
:1036900029480079C0B200022749898889B2090AFD
:1036A00089B2401880218901884223DA2249C879E9
:1036B0000A7A1206120C10431F4AD179137A1B069C
:1036C0001B0C194380B2000289B2090A89B2401862
:1036D000020092B21C49184880880002164B9B8851
:1036E0009BB21B0A9BB2C01880B2FDF7EBFDFFF73F
:1036F0007BFF05E003201349087001E0FFF774FF2A
:1037000001BD10480078704770B506000C00002518
:1037100005E0ADB2715D0DA0FEF7DEFB6D1C200073
:10372000441E80B20028F4D170BD000000E100E02A
:1037300000000540180005402C2A0020AC2A00207B
:10374000AE2A0020B02A0020352A0020257820004B
:103750001206130A1A43130C1A4300BF094205D07C
:10376000830705D00270401C491EF9D17047000044
:10377000130030B414001500103902D310393CC0C6
:10378000FCD2490700D30CC000D504C0890002D385
:103790000280801C002900D5027030BC70470000F8
:1037A0000022E5E7F9B593B01400099108AD0020B7
:1037B000E8610AE00998139A90470990002800D11F
:1037C000C2E1E869401CE861641C2178002901D14C
:1037D000E869BBE12529EDD1002028616861A86175
:1037E00002E0010001200843641C21782029F8D060
:1037F00023290ED02B2904D02D2907D030290BD016
:103800000DE001000220084380B2EDE70100042032
:10381000F9E701000820F6E701001020F3E72A2964
:1038200012D114990968149A11600A68091D149B31
:1038300019606A62002A05D55142696201000420BC
:10384000084380B2641C12E0002169620AE06A6ADF
:103850000A4B9A4205D093009A18520051183039F9
:103860006962641C21780A00303A0A2AEFD3217871
:103870002E2905D00021C943296223E0FFFFFF7FE5
:10388000641C21782A290AD114990968149A1160B4
:103890000A68091D149B19602A62641C12E0002149
:1038A00029620AE02A6AAA4B9A4205D093009A1824
:1038B0005200511830392962641C21780A00303ACC
:1038C0000A2AEFD328852678310000BFA1A002F094
:1038D000BBF8002801D0641C00E000262A202E54EA
:1038E000285C682806D12078682803D162202A2124
:1038F0006854641C02A8E8602678641C252E13D046
:10390000582E40D0632E00D19EE0642E7AD0692ECE
:1039100078D06F2E37D0702E28D0732E0AD0752E07
:1039200031D0782E2FD09CE00120286125206946D7
:103930000872A1E014980068149908600668001DD8
:1039400014990860AE602F6A002F03D5300002F092
:1039500085F809E03A000021300002F087F80028DD
:1039600001D0801B00E03800686185E01498006891
:10397000149908600168001D149A1060089102A84B
:10398000A86078215CE02A20285C6C2801D114987A
:1039900010E0712801D1149802E06A28149809D126
:1039A0000268D21D072082431498026003CA149B48
:1039B0001A6005E0016801600868091D149A116029
:1039C00008902A20285C682802D1089880B203E079
:1039D000622802D10898C0B208902820285C00070D
:1039E00029D50898002826D020203043782822D1D5
:1039F0002869302102AA1154401C411C296102A9E6
:103A00000E5418E014992A20285C00F0A7F80890BA
:103A1000002802D528692D2109E0288D810702D5CB
:103A200028692B2103E0C00705D52869202102AAB7
:103A30001154401C286102A829694018A86031006F
:103A400008A800F0B1F817E0012028611498006878
:103A5000149908600168001D149A1060684601728C
:103A60000AE001202861252069460872002E03D053
:103A70000220286102A84670686A2969401AA9696B
:103A8000401A6969401A01902820285C400710D428
:103A9000202069460870019801280ADB019E012355
:103AA0006A4608A9139800F0FBF800284CD1761E4E
:103AB000F5D12F6902AE002F0CD031780998139AF6
:103AC0009047099000283FD0E869401CE861761CC7
:103AD0007F1EF2D1302069460870AE69012E09DBE5
:103AE00001236A4608A9139800F0DAF800282BD1C0
:103AF000761EF5D1AE686F69002F0CD03178099829
:103B0000139A9047099000281ED0E869401CE8618C
:103B1000761C7F1EF2D12820285C400700D454E692
:103B20002020694608700198012800DA4DE6019EC0
:103B300001236A4608A9139800F0B2F8002803D1BF
:103B4000761E00D141E6F3E70020C04315B0F0BD7A
:103B5000FFFFFF7F686C747A4C000000622815D06C
:103B600068280CD06C2818D0742816D07A2814D164
:103B70000A680A601068121D0A60002170470A680E
:103B80000A601068121D0A6000B20BE00A680A6041
:103B90001068121D0A6040B204E00A680A601068EA
:103BA000121D0A60C1177047F2B582B00400E068C8
:103BB00000906846007A6F2801D1082506E020228F
:103BC0000243782A01D00A2500E010251827216831
:103BD0000E00642801D0692803D1002901D5704264
:103BE0000600002E0DD1206A00280AD1082D31D1FF
:103BF0002820205C00072DD5172730200099C87594
:103C000028E07F1E01973000290001F008FA3031CA
:103C1000C9B23A2903DB6846007A5138091800987E
:103C2000C1553000290001F0FAF9060004D0A0685F
:103C30000099C9198842E4D3082D0BD12820205CB3
:103C4000000707D50098C05D302803D07F1E3020C4
:103C50000099C8551820C01B60610099C919A1605E
:103C6000216A884206DA081AA061208D0B490140BA
:103C7000218510E000290ED52821615C14220A401C
:103C8000102A08D1616A2269891AA269891A0F1A51
:103C9000012F00DBA76103B0F0BD0000EFFF0000C3
:103CA000F1B50E0014000027002B0FD01D00217865
:103CB0007068009A90477060002806D0F069401C38
:103CC000F061641C6D1E01D0F1E7FF433800F2BDC6
:103CD00080B5012280214900074800F049F9012000
:103CE0000649086001BD01200449086070470020B2
:103CF0000249086070470000404000506042005098
:103D000010B500242020FDF7DCF80400002C04D1BD
:103D10006E48FEF7E1F8002007E020210022200095
:103D2000FFF716FD0020E061200010BD00B56849D6
:103D3000096872B600E0C969CA69002AFBD1C86186
:103D40000021C16162B6002000BD10B50200002054
:103D50005F4B1B68DB6972B600E0DB69002B03D0A8
:103D60001C78D2B29442F8D1002B01D00B60012014
:103D700062B6C0B210BD38B500255548046872B6A9
:103D800002E0A8686860E469E069002823D0E5697A
:103D900068780028F7D06868401E68606868002866
:103DA000F1D12869002801D0286980476869002876
:103DB00002D0287E69698847A8780128E1D1E8689F
:103DC000401EE860E868002802D0A8686860DAE76A
:103DD00000206870D7E762B631BD10B50024FEF749
:103DE0007BFAFFF78DFF3A490860394800680028E0
:103DF00001D1012068E0A020FDF763F80400002C49
:103E000004D13448FEF768F801205DE0A0210022CB
:103E10002000FFF79DFC012020700120A0700220EF
:103E2000A060002020612C4860612000FFF77EFF29
:103E300002202021605401202221605427488078EC
:103E400014214843A06200202063254860632000BD
:103E50002030FFF76BFF03204021605401204221F6
:103E600060540320A0641F48206500206065200086
:103E70004030FFF75BFF0420602160540220622184
:103E800060540420A0660020206717486067200067
:103E90006030FFF74BFF0520802160540120822114
:103EA00060540A2088216050104890216050002002
:103EB0009421605080342000FFF738FF0C48FEF753
:103EC00020FAFEF719FA002010BD0000606E000015
:103ED000D42B0020C470000081240000602B00203F
:103EE000A32C0000EB400000E91F0000E73C0000AD
:103EF000773D000070B582B00C001600002500214F
:103F0000002100916946C0B2FFF71FFF002807D0CB
:103F1000009988684860CC600E76012048700125C1
:103F20002800C0B276BD38B50C0000250021002164
:103F300000916946C0B2FFF708FF002815D000992C
:103F4000A078002801D0A0788870A068002801D04F
:103F5000A06888602069002801D020690861606934
:103F6000002801D06069486101252800C0B232BD37
:103F700070B5002310E00C00DC40E4070BD50468AA
:103F800003251E007600B540AC431D006D001600F1
:103F9000AE40264306605B1C102BECD370BD0000C6
:103FA000F0B540B2002821D53B4B40B20207120FBA
:103FB000083A920804246243374C40B205072D0F9B
:103FC000083DAD08042675436459FF258607B60FE2
:103FD00008277E43B540AC438901C9B28007800FF2
:103FE000082568438140214399501AE02B4A40B28A
:103FF000830804246343D258FF238407A40F0825B1
:104000006C43A3409A438901C9B283079B0F0824DC
:10401000634399401143214A40B280080423584326
:104020001150F0BD80B5411E80225204914201D34F
:1040300001200EE0401E1A49086003210020C04301
:10404000FFF7AEFF002017490860072016490860F7
:10405000002002BD80B515480068142100F0DFFF84
:10406000FFF7E0FF01BD12480068401C10490860DE
:1040700070470F480068704780B50E4800680028F8
:1040800009D00B4800680A2100F0C9FF002902D1BD
:1040900008480068804701BD1CED00E000E400E036
:1040A00014E000E018E000E010E000E04000002034
:1040B000C02B0020C42B002080B5E121490202481A
:1040C00001F076FC01BD00BF0000154080B5012263
:1040D000802109010748FFF74BFF002006490860CF
:1040E00001BD0120044908607047002002490860B2
:1040F00070470000404000506C42005038B5050049
:104100000C0001F0C8FCD02001F0FCFC00280FD10D
:104110002800C0B201F0F6FC002809D12000C0B28E
:1041200001F0F0FC002803D101F0D2FC012002E0F4
:1041300001F0CEFC002032BD70B504000D00160069
:10414000761E01F0A8FCD02001F0DCFC002820D174
:104150002000C0B201F0D6FC00281AD101F09BFC6F
:10416000D12001F0CFFC002813D1002405E001206C
:1041700001F00EFD28706D1C641CE4B2F6B2B4426E
:10418000F5D3002001F004FD287001F0A1FC01200E
:1041900002E001F09DFC002070BD80B50122C0212D
:1041A00009018C48FFF7E4FE0122802149018A4879
:1041B000FFF7DEFE89480068C021090101438748F6
:1041C00001608748006880214901014384480160FB
:1041D00001228021C9018048FFF7CAFE01208149E0
:1041E00008600120804908600120804908600120A2
:1041F0007F490860002002BD10B5002400207C49E2
:1042000008600A20FEF72AFB0F210920FFF776FF3E
:10421000002800D101240A20FEF720FB07210920F5
:10422000FFF76CFF002800D10124BB210220FFF71B
:1042300065FF002800D10124BB210320FFF75EFFAA
:10424000002800D10124BB210420FFF757FF0028DC
:1042500000D10124BB210520FFF750FF002800D129
:104260000124BB210620FFF749FF002800D10124CB
:10427000BB210720FFF742FF002800D10124312194
:104280000820FFF73BFF002800D1012400210A206D
:10429000FFF734FF002800D1012400210B20FFF795
:1042A0002DFF002800D1012400210C20FFF726FF5C
:1042B000002800D1012400210D20FFF71FFF002856
:1042C00000D1012401204A4908602000C0B210BD7D
:1042D00080B5FFF762FF002002BD10B5002400E0AA
:1042E000641CE4B2032C05DAFFF786FF0028F7D13F
:1042F000002000E0012010BD80B5002000203C49D6
:104300000860002000900120FEF7A8FA0322694609
:104310001020FFF711FF01203549086000980028A0
:1043200052D000983349014000910099009A3248D8
:1043300000685040084030490968009A0A432E49F5
:104340000A6002282ED0082838D0202830D08028B3
:1043500036D08021890088422ED0802109018842F0
:1043600024D08021890188421AD080210902884204
:1043700014D080218902884216D080210903884206
:1043800008D080218903884214D080210904884202
:1043900002D017E02A201BE0232019E0382017E084
:1043A000372015E0312013E0392011E036200FE0EE
:1043B00033200DE030200BE0352009E0322007E00B
:1043C000342005E0EE2003E000200B490860FF20C8
:1043D00002BD00000040005040400050244000500A
:1043E0006440005078420050284200502C42005057
:1043F00070420050AAAAAA00BC2B002080B5FEF78C
:104400002DFA01BD00B5C0B2002803D00120134928
:10441000086002E000201149086000BD00B5C0B28C
:10442000002803D001200E49086002E000200C495A
:10443000086000BD00B5C0B2002803D001200949C2
:10444000086002E000200749086000BD80B5012235
:10445000F02109010448FFF78BFD01BDA042005087
:10446000A4420050AC4200508040005080B5FFF79D
:10447000EDFFC820FFF7C2FFFF2000F021FAFF2068
:1044800000F0F6F9982000F0F3F9062000F0F0F9BA
:10449000BA2000F015FAE02000F0EAF9BC2000F0A4
:1044A0000FFA032000F0E4F90E2000F0E1F90320F8
:1044B00000F0DEF9632000F0DBF9012000F0D8F90C
:1044C000012000F0D5F91B2000F0D2F9122000F0F5
:1044D000CFF9392000F0CCF9002000F0C9F9002014
:1044E00000F0C6F9002000F0C3F9012000F0C0F987
:1044F000012000F0BDF9022000F0BAF9022000F01E
:10450000B7F9FF2000F0B4F9F22000F0B1F9012072
:1045100000F0AEF9002000F0ABF9C02000F0A8F9DF
:10452000BD2000F0CDF9022000F0A2F9132000F028
:104530009FF9452000F09CF9672000F099F945208B
:1045400000F096F9672000F093F9012000F090F94F
:10455000232000F08DF9BE2000F0B2F9012000F018
:1045600087F9222000F084F9222000F081F9DC2074
:1045700000F07EF9BA2000F07BF9672000F078F9AE
:10458000222000F075F9222000F072F9222000F0BC
:104590006FF9C72000F094F9782000F069F9ED2058
:1045A00000F08EF97F2000F063F90F2000F060F931
:1045B000002000F05DF9C02000F082F9032000F037
:1045C00057F90B2000F054F90A2000F051F9F520BA
:1045D00000F076F9202000F04BF9432000F048F974
:1045E000002000F045F9EE2000F06AF90A2000F002
:1045F0003FF91B2000F03CF95F2000F039F9402022
:1046000000F036F9282000F033F9382000F030F9B6
:10461000022000F02DF92B2000F02AF9502000F0A4
:1046200027F9002000F024F9802000F021F9FC2077
:1046300000F046F9082000F01BF9DF2000F040F9F7
:10464000002000F015F9002000F012F9002000F021
:104650000FF9002000F00CF9002000F009F92020EB
:1046600000F006F9F32000F02BF9742000F000F9B7
:10467000B42000F025F9022000F0FAF8022000F042
:10468000F7F8022000F0F4F8F72000F019F9822082
:1046900000F0EEF8B12000F013F9002000F0E8F887
:1046A000132000F0E5F8132000F0E2F8F22000F00B
:1046B00007F9892000F0DCF8922000F0D9F85220A8
:1046C00000F0D6F8282000F0D3F8F92000F0F8F830
:1046D000002000F0CDF8FD2000F0CAF8802000F0A6
:1046E000C7F8F02000F0C4F8F02000F0C1F8C120B5
:1046F00000F0E6F8172000F0BBF8752000F0B8F8DD
:10470000652000F0B5F8202000F0B2F8E02000F0BD
:10471000D7F8002000F0ACF8042000F0A9F80D2034
:1047200000F0A6F80F2000F0A3F8112000F0A0F888
:10473000192000F09DF8C92000F09AF8082000F038
:1047400097F8012000F094F8062000F091F8062078
:1047500000F08EF80B2000F08BF80D2000F088F8A8
:10476000312000F085F82C2000F082F8002000F0C5
:104770007FF8E12000F0A4F8002000F079F805208F
:1047800000F076F8082000F073F80D2000F070F8C3
:10479000102000F06DF8122000F06AF8792000F087
:1047A00067F8082000F064F8032000F061F80820A2
:1047B00000F05EF8092000F05BF80E2000F058F8D9
:1047C0000E2000F055F82A2000F052F8222000F0C8
:1047D0004FF8002000F04CF8552000F071F89020C0
:1047E00000F046F83A2000F06BF8772000F040F82F
:1047F000B62000F065F8202000F03AF8B02000F074
:104800005FF8032000F034F8362000F059F8A020BB
:1048100000F02EF82A2000F053F8002000F028F8CD
:10482000002000F025F8032000F022F81F2000F0FF
:104830001FF82B2000F044F8002000F019F80020A9
:1048400000F016F8012000F013F8DF2000F010F857
:10485000112000F035F87820FFF7D0FD292000F076
:104860002FF81920FFF7CAFD2C2000F029F801BD10
:1048700038B504000020FFF7C5FD0020FFF7CEFD8E
:104880000120FFF7D7FD0120FFF7C8FD002507E055
:104890000020FFF7CFFD0120FFF7C0FD64006D1C75
:1048A000EDB2082D08DA0020FFF7B8FD2006EFD59D
:1048B0000120FFF7BFFDEEE70120FFF7A3FD31BDAB
:1048C00038B504000020FFF79DFD0020FFF7A6FD8E
:1048D0000020FFF7AFFD0120FFF7A0FD002507E056
:1048E0000020FFF7A7FD0120FFF798FD64006D1C75
:1048F000EDB2082D08DA0020FFF790FD2006EFD575
:104900000120FFF797FDEEE70120FFF77BFD31BDAA
:1049100000B508E059209F49086016209D490860AD
:1049200088209C4908609B4800680128F2D100BD9E
:10493000002098490860704730B583B00400002516
:10494000FFF7E6FF01F097F90221684601F0BAF996
:10495000002807D5012501F06BF9FFF7E9FF2800D2
:10496000C0B23EBD0098C00704D40198A04201D156
:104970000025F0E78848006810210143864801605F
:10498000009801218843009001940221684601F0BB
:10499000ACF9002801D50125DDE701207F49086039
:1049A00001F046F9FFF7C4FF0020DAE770B50C000C
:1049B0000600002506E0300001F064F92060241DA7
:1049C000361D6D1CADB2802DF5DB002070BD70B5BD
:1049D0000C000600002506E02168300001F062F9B5
:1049E000241D361D6D1CADB2802DF5DB002070BD81
:1049F00080B580200002FFF79FFF02BDF0B5FFB039
:104A000082B004000E00150001A880218900FEF785
:104A1000C7FEFFF77DFF01F02EF980200002241869
:104A200020008021890000F0FAFA0F00640A80203B
:104A30008000444378195A49884201D2009503E026
:104A400080208000C01B009001A92000FFF7AEFF6E
:104A5000009A310001A8C7193800FCF7D1FB2000EB
:104A600001F0EDF801A92000FFF7B1FF009836181A
:104A700000982D1A002D12D08020800024180EE0FE
:104A8000200001F0DCF831002000FFF7A0FF8020BB
:104A90008000361843482D18802080002418404894
:104AA0008542EDD2002D10D001A92000FFF77EFF36
:104AB0002A00310001AD2800FCF7A2FB200001F024
:104AC000BEF801A92000FFF782FF01F0B1F8FFF75F
:104AD0002FFF00207FB002B0F0BDF0B5FFB082B074
:104AE00005000E00140001A880218900FEF758FE81
:104AF000FFF70EFF01F0BFF8802000022D182800FC
:104B00008021890000F08BFA0F006D0A8020800060
:104B1000454338192249884201D2009403E080209D
:104B20008000C01B009001A92800FFF73FFF009AFA
:104B300001A8C1193000FCF763FB009836180098F3
:104B4000241A002C0FD0802080002D180BE031009B
:104B50002800FFF72BFF802080003618114824180A
:104B6000802080002D180E488442F0D2002C08D0FE
:104B700001A92800FFF71AFF220001A93000FCF765
:104B80003FFB01F055F8FFF7D3FE00207FB002B0E5
:104B9000F0BD00000001005000C0005008000050AF
:104BA0000102000000FEFFFFF8B505000F00002421
:104BB0000020FFF7ADFE01F05EF880208000454345
:104BC000802000022D18002609E0280001F037F8A7
:104BD000002800D1641C802080002D18761CBE4265
:104BE000F3D301F025F8FFF7A3FE381BF2BD000058
:104BF000F4B505000C00280000F01DF806000021A7
:104C0000002770080099884201D202210AE0802022
:104C10004004864201D3012776083000009900F055
:104C2000FEF90100A9606F602C6030007F1C7943A1
:104C300000F0F5F9F2BD1FB50400684616491022D0
:104C4000FCF7F2FA1548844205D115480068000ABD
:104C50004007400F16E01348844205D11048006811
:104C6000000B4007400F0DE00F48844205D10F486C
:104C70000068000A4007400F04E00C480068000B81
:104C80004007400F042804D26946042250430858C4
:104C900000E0074804B010BDA87C000000000140FF
:104CA00014020050000101400000114018020050A1
:104CB000001BB70080B501F08DF88148006802BD87
:104CC00010B500207F480268D00301D5002022E003
:104CD000900301D5794800E07848D10401D5022439
:104CE00000E00124110A8907890F002901D102215E
:104CF00008E0012901D1042104E0022901D10821A1
:104D000000E010219206920E2032504300F087F905
:104D1000210000F084F910BD10B59B490C681021EA
:104D20000C406649884209D1042000F096F8002121
:104D3000072000F030F8624800682BE09349884271
:104D400000D292489249884200D392485A49096851
:104D5000C90706D5032148430100002000F0B4F83C
:104D60000AE00321484301008020800200F0ACF8F3
:104D700085480468102004400221022000F00BF84E
:104D8000002C05D14C480068042188434A4908603A
:104D90004B48006810BD70B505000C007A480668E5
:104DA0001020064044480068042101434248016045
:104DB000102000F0F7F87948006807210143774890
:104DC0000160774800680F218843044374480460F9
:104DD000724800680721884305437048056000F069
:104DE000F9FF002E05D1344800681021884332496C
:104DF000086070BD70B5002300240024830ADBB274
:104E0000002B11D0830C9B079B0F04246343644C3D
:104E10001C192368850AEDB24609F606F60EB54060
:104E2000AB431A4313002360420E1207120F002AED
:104E300012D0420F9207920F04235A43574BD418B3
:104E40002368420E1207120F000DC006C00E8240EA
:104E5000934319430B00236070BD10B5040016483E
:104E60000068204314490860E00702D5012000F0E3
:104E700099F8A00702D5022000F094F8600702D547
:104E8000102000F08FF8200702D5082000F08AF8E3
:104E900010BDC10F042251434A4A89580122030020
:104EA000DB06DB0E9A400A43C00F04214843454904
:104EB000425070470000000000020050001BB70085
:104EC0004000002024020050F0B585B004000E0020
:104ED00068463D491022FCF7A7F93C48864201D2BA
:104EE0003A4E03E03A48864200D33A4E8020800290
:104EF000844202D00024284D02E08024A402264DE2
:104F00003000354900F08BF807002800324900F0E6
:104F100086F8060028000C2100F081F8002910D145
:104F20003800032100F07BF80700042047433000DD
:104F3000032100F074F806000420464301E07608DF
:104F40007F08112EFBD2602FF9D2032000E0401E13
:104F5000002805D469460422424389588E42F6D17E
:104F600000022043203F07431C4807601B4800689D
:104F70001B49014019480160042000F013F8FFF7B5
:104F80009FFE05B0F0BD00000C02005000366E011F
:104F90000148E8010048E801001BB700100200507A
:104FA0001C02005000B50F490F4A126802408242AD
:104FB00005D00A00511E012AF6DA002000E0012087
:104FC00000BD000004020050687C0000006CDC02A0
:104FD000010E2707000E270740420F002402005051
:104FE000FFFFFEFF60EA00000C020050F4460028BC
:104FF00004D4494200F013F840426047404200297F
:1050000005D45FD000F00BF8404249426047494266
:1050100000F005F84942604703460B43E6D40022FE
:10502000030A8B420BD203098B4219D243088B42ED
:105030002ED2411A00D20146524110467047FF223B
:1050400009023FD012068B4205D3121209028B428D
:1050500001D31212090203098B4219D300E0090A95
:10506000C3098B4201D3CB01C01A524183098B4241
:1050700001D38B01C01A524143098B4201D34B012A
:10508000C01A524103098B4201D30B01C01A52418D
:10509000C3088B4201D3CB00C01A524183088B4214
:1050A00001D38B00C01A524143088B4201D34B00FD
:1050B000C01A5241884200D3401A5241CFD2014611
:1050C0001046704708B500F0A7FE08BD0143500028
:1050D00008439900014308200843014908607047CC
:1050E000004000400CB41CB5040004A801900094DA
:1050F00001AB0A006946084878441C30FEF752FBB1
:105100000021009A1170002801D40098001B02B001
:10511000019910BC03B00847B3C0FFFF10B402E010
:10512000401C491C521E002A09D00B7804789C426E
:10513000F6D002D20020C04302E0012000E00020AF
:1051400010BC7047074800680C218843024305489B
:1051500002600448006804490140024801600348B5
:105160000360704730000E40FFFFFCFF34000E402C
:1051700080B580B2FDF772FB01BD00B5C0B200285A
:1051800001D0012000E000202B49086000BD80B55F
:1051900000F08DFE02BD80B500216A46117040000E
:1051A0008021014368464170012100A8401CFFF79F
:1051B000EEFF01216846FFF7EAFF6846007802BD6E
:1051C00080B540007E220240684602706846417009
:1051D00002216846FFF7DBFF02BD7FB504000D002A
:1051E00016000020684615491022FCF71DF8002023
:1051F00018E080B2215C0A00D2B2120980B2215CB0
:105200000907090F6B4652B29A5C80B202234343EE
:10521000F2546A4649B2515C80B202224243B2184B
:105220005170401C80B2ADB2A842E2D3002180B2DE
:1052300002224243B1547FBD58420050887C000096
:1052400038B505000C0000202800C0B2FFF7A3FF0E
:10525000204304432100C9B22800C0B2FFF7B0FFC9
:1052600031BD38B505000C0000202800C0B2FFF7A2
:1052700092FFA0430100C9B22800C0B2FFF7A0FF0F
:1052800031BD80B51420FFF786FF800703D10321CD
:105290001420FFF7D5FF01BD80B503211420FFF7CF
:1052A000E0FF01BDF8B507000E0014000421052041
:1052B000FFF7D7FF00210120FFF782FF80210A209E
:1052C000FFF7BEFF002505E0EDB2795D0920FFF78D
:1052D00077FF6D1CEDB2F6B2B542F5D30321012084
:1052E000FFF76EFFFF250520FFF755FF6D1EEDB29E
:1052F000002D01D04007F6D52220FFF74CFF20708B
:105300002120FFF748FF6070F1BD80B50120FFF755
:1053100034FF0020FFF731FF0220FFF729FF0120B3
:10532000FFF72BFF0520FFF723FF0F210120FFF7D9
:1053300047FF0520FFF71CFF3D211120FFF740FF2D
:105340001E212D20FFF73CFF00212C20FFF738FF06
:105350008D212A20FFF734FF3E212B20FFF730FF5D
:1053600040211520FFF72CFF002002BD80B5C0B200
:10537000412826D108210820FFF773FF3D21112085
:10538000FFF71EFF86211720FFF71AFF7F21262037
:10539000FFF716FF1E212D20FFF712FF00212C2002
:1053A000FFF70EFF8D212A20FFF70AFF3E212B2059
:1053B000FFF706FF0A20FFF7DBFEFFF762FF002082
:1053C00002BDC0B242285BD108210820FFF749FF87
:1053D0002F211120FFF7F4FE1E212D20FFF7F0FEF4
:1053E00000212C20FFF7ECFE8D212A20FFF7E8FE9C
:1053F0003E212B20FFF7E4FE00211520FFF7E0FE01
:10540000FF212720FFF7DCFE3F212820FFF7D8FEF1
:1054100007212920FFF7D4FE03211220FFF7D0FE39
:1054200000210D20FFF7CCFE00213620FFF7C8FE3B
:1054300073212620FFF7C4FE0B211320FFF7C0FEC7
:105440004D211820FFF7BCFE3F211720FFF709FF71
:1054500008211720FFF7F4FE80211220FFF701FF3B
:1054600080211320FFF7FDFE08210820FFF7F9FE39
:10547000FFF712FF0A20FFF77BFEFFF702FF9EE710
:105480000020C0439CE7FDB582B00D000227002636
:105490000020694608706846007A0C2806D00E285D
:1054A00009D1122610206946087004E077263020C2
:1054B00069460870FFE780213143C9B20220FFF737
:1054C0007FFE80210420FFF7CCFE00210120FFF7A2
:1054D00077FE80210A20FFF7B3FE002404E0295D57
:1054E0000920FFF76DFE641C6846007B8442F6D3FA
:1054F0006846017A0120FFF763FE6846007A0C28AF
:1055000003D180210D20FFF79BFEFA242401042003
:10551000FFF741FE0500641E002C05D0E80703D408
:10552000684600780542F2D080210D20FFF799FEF1
:10553000002C3DD00620FFF72EFE1B21084236D15D
:105540000027EDB2F6B22E40F00700D501276846DD
:10555000007A0C282CD10A20FFF71DFE05000C2034
:10556000FFF719FE4107490F0A98C9B2002907D071
:10557000EDB26A1E08235A43C9B25118016003E014
:10558000EDB2082169430160EDB2002D00D1012583
:10559000EDB2132D00DB12250024EDB2AC4207D290
:1055A0000920FFF7F8FD04990855641CF5E7022768
:1055B00080210C20FFF744FE00210120FFF700FEB0
:1055C000380040B205B0F0BD30B587B005000C0022
:1055D00008210820FFF745FE07210D20FFF7F0FD09
:1055E00003211420FFF72CFE6846057201A80090E5
:1055F00002AB012202A90C20FFF745FF40B20028B0
:1056000009D10199102906D16946097A217002A9A8
:105610004978617000E0022040B207B030BD70B53B
:1056200088B00600002408210820FFF71AFE002198
:105630000D20FFF7C5FD80210E20FFF712FE9320FD
:1056400069460872202002A9487001A8009002ABA8
:10565000022202A90C20FFF716FF05006DB2002DF3
:1056600016D100200AE002A9C0B2095CC0B23154D0
:10567000220002A9C0B20C5C5440401CC0B20428F5
:10568000F1DB02A9C0B2085CE4B2844200D002257A
:1056900080210E20FFF7D4FD280040B208B070BD75
:1056A00000B587B093216A461172702102AA517029
:1056B000002102AA917100210DE0C9B2425C02AB47
:1056C000C9B25B189A7002AA9279C9B2435C53407E
:1056D00002AA9371491CC9B20429EEDB02AAD21DA9
:1056E000072102A8FFF7DEFD08210820FFF7B9FD1A
:1056F00001A8009002AB092202A90C20FFF7C3FE0B
:1057000040B2002804D10198182801D1002000E0FF
:10571000022040B207B000BD10B588B06C462072C0
:1057200002A84170002006E0C0B2115C02ACC0B219
:105730002418A170401CC0B20628F5DB002006E04A
:10574000C0B2195C02AAC0B212181172401CC0B2D9
:105750000628F5DB01A8009002AB0C2202A90E205E
:10576000FFF791FE040064B2002C04D10820FFF77B
:1057700012FD000700D40224200040B208B010BD82
:1057800010B588B00C0030216A46117202A9487029
:1057900002AA921C022102A8FFF784FD01A8009032
:1057A00002AB042202A90C20FFF76DFE40B20028D4
:1057B0000DD1019990290AD10021C9B2102907DA27
:1057C00002AAC9B2525CC9B26254491CF5E7022070
:1057D00040B208B010BD10B588B00C00A0216A46D8
:1057E000117202A9487002AA921C022102A8FFF7B6
:1057F00059FD01A8009002AB042202A90C20FFF77A
:1058000042FE40B2002808D10199042905D1694619
:10581000097A0907090F0A2900D0022040B200289E
:1058200025D1002005E0C0B2215C02AAC0B211540B
:10583000401CC0B21028F6DB02AA1032102102A8C8
:10584000FFF730FD01A8009002AB122202A90C2044
:10585000FFF719FE40B2002808D10199042905D1AB
:105860006946097A0907090F0A2900D0022040B2C7
:1058700008B010BD00B587B002A81421FDF790FF55
:10588000052069460872002002A94870002002A97C
:105890008870712002A9C870FF2002A9087101A8B0
:1058A000009002AB052202A90C20FFF7ECFD40B2EC
:1058B00007B000BD10B588B0040001A81421FDF7A1
:1058C0006FFF002069460871362001A9487000204A
:1058D00001A98870002001A9C870082001A90871D9
:1058E000572001A94871442001A9887106A8009099
:1058F00001AB072201A90C20FFF7C5FD40B200282B
:1059000007D1002103E001AA525C6254491C0A2914
:10591000F9D340B208B010BD00B587B001A814217A
:10592000FDF73EFF1D2069460871002001A948705F
:10593000002001A98870002001A9C870002001A9D9
:105940000871002001A94871082001A9887101206F
:1059500001A9C871082001A90872F32001A94872A1
:10596000102001A9887206A8009001AB0B2201A9A2
:105970000C20FFF788FD40B207B000BD80B5084994
:10598000042000F06DFA012240210648FEF7F0FAEB
:10599000FFF7BBFCFFF780FCFFF773FC002002BDA4
:1059A00040420F0040400050C2681143C160704740
:1059B000F0B585B004000D00684620491022FBF7C1
:1059C00033FC1F4800688007800F6946C0B204227C
:1059D00050430F581B480068000A0607360F761C14
:1059E000002F06D100F0AAF93100FFF718FB0700DD
:1059F00004E038003100FFF712FB07000020A0632D
:105A00000320A060002D17D0680838182900FFF780
:105A100006FB401E8021490288420CD308206843BF
:105A200038182900FFF7FBFA0009401E80210906FB
:105A30000143616200E0606205B0F0BDB87C000027
:105A4000140200501C020050C9B200E0401C027851
:105A50008A4202D0002AF9D100207047010000E0FC
:105A6000491C0A78002AFBD1081A7047C9B201E024
:105A7000401C521E002A03D003788B42F8D1704795
:105A80000020704772B6704762B6704780B580B22A
:105A9000FCF7D6FE01BD80B501228021C900614816
:105AA000FEF766FA01206049086001205F4908603E
:105AB0000520FFF7EBFF00205B4908600520FFF79A
:105AC000E5FF0020594908600520FFF7DFFF01BD11
:105AD00080B501228021C9005248FEF749FA002012
